{
  "_format": "hh-sol-artifact-1",
  "contractName": "MedicalStorage",
  "sourceName": "contracts/MedicalStorage.sol",
  "abi": [
    {
      "anonymous": false,
      "inputs": [
        {
          "indexed": true,
          "internalType": "address",
          "name": "user",
          "type": "address"
        },
        {
          "indexed": false,
          "internalType": "string",
          "name": "ipfsHash",
          "type": "string"
        }
      ],
      "name": "FileStored",
      "type": "event"
    },
    {
      "inputs": [
        {
          "internalType": "address",
          "name": "user",
          "type": "address"
        }
      ],
      "name": "getUserFiles",
      "outputs": [
        {
          "internalType": "string[]",
          "name": "",
          "type": "string[]"
        }
      ],
      "stateMutability": "view",
      "type": "function"
    },
    {
      "inputs": [
        {
          "internalType": "string",
          "name": "ipfsHash",
          "type": "string"
        }
      ],
      "name": "storeFile",
      "outputs": [],
      "stateMutability": "nonpayable",
      "type": "function"
    },
    {
      "inputs": [
        {
          "internalType": "address",
          "name": "",
          "type": "address"
        },
        {
          "internalType": "uint256",
          "name": "",
          "type": "uint256"
        }
      ],
      "name": "userFiles",
      "outputs": [
        {
          "internalType": "string",
          "name": "",
          "type": "string"
        }
      ],
      "stateMutability": "view",
      "type": "function"
    }
  ],
  "bytecode": "0x608060405234801561001057600080fd5b506108bf806100206000396000f3fe608060405234801561001057600080fd5b50600436106100415760003560e01c80631fc3792214610046578063718f38a614610076578063e602406a146100a6575b600080fd5b610060600480360381019061005b9190610490565b6100c2565b60405161006d9190610631565b60405180910390f35b610090600480360381019061008b91906104b9565b6101d9565b60405161009d9190610653565b60405180910390f35b6100c060048036038101906100bb91906104f5565b610292565b005b60606000808373ffffffffffffffffffffffffffffffffffffffff1673ffffffffffffffffffffffffffffffffffffffff168152602001908152602001600020805480602002602001604051908101604052809291908181526020016000905b828210156101ce578382906000526020600020018054610141906107ba565b80601f016020809104026020016040519081016040528092919081815260200182805461016d906107ba565b80156101ba5780601f1061018f576101008083540402835291602001916101ba565b820191906000526020600020905b81548152906001019060200180831161019d57829003601f168201915b505050505081526020019060010190610122565b505050509050919050565b600060205281600052604060002081815481106101f557600080fd5b90600052602060002001600091509150508054610211906107ba565b80601f016020809104026020016040519081016040528092919081815260200182805461023d906107ba565b801561028a5780601f1061025f5761010080835404028352916020019161028a565b820191906000526020600020905b81548152906001019060200180831161026d57829003601f168201915b505050505081565b6000803373ffffffffffffffffffffffffffffffffffffffff1673ffffffffffffffffffffffffffffffffffffffff1681526020019081526020016000208190806001815401808255809150506001900390600052602060002001600090919091909150908051906020019061030992919061035b565b503373ffffffffffffffffffffffffffffffffffffffff167f794ce8beab181d20ff474f00e6251d0a36d0c1f89797ba1b484a0be53e0dcbf1826040516103509190610653565b60405180910390a250565b828054610367906107ba565b90600052602060002090601f01602090048101928261038957600085556103d0565b82601f106103a257805160ff19168380011785556103d0565b828001600101855582156103d0579182015b828111156103cf5782518255916020019190600101906103b4565b5b5090506103dd91906103e1565b5090565b5b808211156103fa5760008160009055506001016103e2565b5090565b600061041161040c846106a6565b610675565b90508281526020810184848401111561042957600080fd5b610434848285610778565b509392505050565b60008135905061044b8161085b565b92915050565b600082601f83011261046257600080fd5b81356104728482602086016103fe565b91505092915050565b60008135905061048a81610872565b92915050565b6000602082840312156104a257600080fd5b60006104b08482850161043c565b91505092915050565b600080604083850312156104cc57600080fd5b60006104da8582860161043c565b92505060206104eb8582860161047b565b9150509250929050565b60006020828403121561050757600080fd5b600082013567ffffffffffffffff81111561052157600080fd5b61052d84828501610451565b91505092915050565b600061054283836105bf565b905092915050565b6000610555826106e6565b61055f8185610709565b935083602082028501610571856106d6565b8060005b858110156105ad578484038952815161058e8582610536565b9450610599836106fc565b925060208a01995050600181019050610575565b50829750879550505050505092915050565b60006105ca826106f1565b6105d4818561071a565b93506105e4818560208601610787565b6105ed8161084a565b840191505092915050565b6000610603826106f1565b61060d818561072b565b935061061d818560208601610787565b6106268161084a565b840191505092915050565b6000602082019050818103600083015261064b818461054a565b905092915050565b6000602082019050818103600083015261066d81846105f8565b905092915050565b6000604051905081810181811067ffffffffffffffff8211171561069c5761069b61081b565b5b8060405250919050565b600067ffffffffffffffff8211156106c1576106c061081b565b5b601f19601f8301169050602081019050919050565b6000819050602082019050919050565b600081519050919050565b600081519050919050565b6000602082019050919050565b600082825260208201905092915050565b600082825260208201905092915050565b600082825260208201905092915050565b60006107478261074e565b9050919050565b600073ffffffffffffffffffffffffffffffffffffffff82169050919050565b6000819050919050565b82818337600083830152505050565b60005b838110156107a557808201518184015260208101905061078a565b838111156107b4576000848401525b50505050565b600060028204905060018216806107d257607f821691505b602082108114156107e6576107e56107ec565b5b50919050565b7f4e487b7100000000000000000000000000000000000000000000000000000000600052602260045260246000fd5b7f4e487b7100000000000000000000000000000000000000000000000000000000600052604160045260246000fd5b6000601f19601f8301169050919050565b6108648161073c565b811461086f57600080fd5b50565b61087b8161076e565b811461088657600080fd5b5056fea2646970667358221220a2629e6340ebd88494edbfd26b7d037518ed49c676a790bf141c8e96f734cd5e64736f6c63430008000033",
  "linkReferences": {},
  "deployedLinkReferences": {}
}