{
  "_format": "hh-sol-artifact-1",
  "contractName": "MedicalStorage",
  "sourceName": "contracts/MedicalStorage.sol",
  "abi": [
    {
      "inputs": [
        {
          "internalType": "address",
          "name": "_patientAddress",
          "type": "address"
        }
      ],
      "name": "getRecord",
      "outputs": [
        {
          "internalType": "string",
          "name": "",
          "type": "string"
        },
        {
          "internalType": "string",
          "name": "",
          "type": "string"
        }
      ],
      "stateMutability": "view",
      "type": "function"
    },
    {
      "inputs": [
        {
          "internalType": "address",
          "name": "",
          "type": "address"
        }
      ],
      "name": "records",
      "outputs": [
        {
          "internalType": "string",
          "name": "patientName",
          "type": "string"
        },
        {
          "internalType": "string",
          "name": "ipfsHash",
          "type": "string"
        }
      ],
      "stateMutability": "view",
      "type": "function"
    },
    {
      "inputs": [
        {
          "internalType": "string",
          "name": "_patientName",
          "type": "string"
        },
        {
          "internalType": "string",
          "name": "_ipfsHash",
          "type": "string"
        }
      ],
      "name": "storeRecord",
      "outputs": [],
      "stateMutability": "nonpayable",
      "type": "function"
    }
  ],
  "bytecode": "0x608060405234801561001057600080fd5b5061083e806100206000396000f3fe608060405234801561001057600080fd5b50600436106100415760003560e01c8063469e906714610046578063617fba04146100775780636386953f146100a8575b600080fd5b610060600480360381019061005b9190610534565b6100c4565b60405161006e929190610602565b60405180910390f35b610091600480360381019061008c9190610534565b6101f8565b60405161009f929190610602565b60405180910390f35b6100c260048036038101906100bd919061055d565b610380565b005b60006020528060005260406000206000915090508060000180546100e79061071f565b80601f01602080910402602001604051908101604052809291908181526020018280546101139061071f565b80156101605780601f1061013557610100808354040283529160200191610160565b820191906000526020600020905b81548152906001019060200180831161014357829003601f168201915b5050505050908060010180546101759061071f565b80601f01602080910402602001604051908101604052809291908181526020018280546101a19061071f565b80156101ee5780601f106101c3576101008083540402835291602001916101ee565b820191906000526020600020905b8154815290600101906020018083116101d157829003601f168201915b5050505050905082565b60608060008060008573ffffffffffffffffffffffffffffffffffffffff1673ffffffffffffffffffffffffffffffffffffffff1681526020019081526020016000206040518060400160405290816000820180546102569061071f565b80601f01602080910402602001604051908101604052809291908181526020018280546102829061071f565b80156102cf5780601f106102a4576101008083540402835291602001916102cf565b820191906000526020600020905b8154815290600101906020018083116102b257829003601f168201915b505050505081526020016001820180546102e89061071f565b80601f01602080910402602001604051908101604052809291908181526020018280546103149061071f565b80156103615780601f1061033657610100808354040283529160200191610361565b820191906000526020600020905b81548152906001019060200180831161034457829003601f168201915b5050505050815250509050806000015181602001519250925050915091565b6040518060400160405280838152602001828152506000803373ffffffffffffffffffffffffffffffffffffffff1673ffffffffffffffffffffffffffffffffffffffff16815260200190815260200160002060008201518160000190805190602001906103ef929190610414565b50602082015181600101908051906020019061040c929190610414565b509050505050565b8280546104209061071f565b90600052602060002090601f0160209004810192826104425760008555610489565b82601f1061045b57805160ff1916838001178555610489565b82800160010185558215610489579182015b8281111561048857825182559160200191906001019061046d565b5b509050610496919061049a565b5090565b5b808211156104b357600081600090555060010161049b565b5090565b60006104ca6104c58461065e565b610639565b9050828152602081018484840111156104e257600080fd5b6104ed8482856106dd565b509392505050565b600081359050610504816107f1565b92915050565b600082601f83011261051b57600080fd5b813561052b8482602086016104b7565b91505092915050565b60006020828403121561054657600080fd5b6000610554848285016104f5565b91505092915050565b6000806040838503121561057057600080fd5b600083013567ffffffffffffffff81111561058a57600080fd5b6105968582860161050a565b925050602083013567ffffffffffffffff8111156105b357600080fd5b6105bf8582860161050a565b9150509250929050565b60006105d48261068f565b6105de818561069a565b93506105ee8185602086016106ec565b6105f7816107e0565b840191505092915050565b6000604082019050818103600083015261061c81856105c9565b9050818103602083015261063081846105c9565b90509392505050565b6000610643610654565b905061064f8282610751565b919050565b6000604051905090565b600067ffffffffffffffff821115610679576106786107b1565b5b610682826107e0565b9050602081019050919050565b600081519050919050565b600082825260208201905092915050565b60006106b6826106bd565b9050919050565b600073ffffffffffffffffffffffffffffffffffffffff82169050919050565b82818337600083830152505050565b60005b8381101561070a5780820151818401526020810190506106ef565b83811115610719576000848401525b50505050565b6000600282049050600182168061073757607f821691505b6020821081141561074b5761074a610782565b5b50919050565b61075a826107e0565b810181811067ffffffffffffffff82111715610779576107786107b1565b5b80604052505050565b7f4e487b7100000000000000000000000000000000000000000000000000000000600052602260045260246000fd5b7f4e487b7100000000000000000000000000000000000000000000000000000000600052604160045260246000fd5b6000601f19601f8301169050919050565b6107fa816106ab565b811461080557600080fd5b5056fea26469706673582212207ce46626afaad330e9f9f7769f7b222b6bcfb2f87dc492c7fa4241b5a39583df64736f6c63430008040033",
  "linkReferences": {},
  "deployedLinkReferences": {}
}